{
    "contractName": "BlockChainHRM",
    "abi": [
        {
            "anonymous": false,
            "inputs": [
                {
                    "indexed": false,
                    "internalType": "uint32",
                    "name": "productId",
                    "type": "uint32"
                }
            ],
            "name": "TransferOwnership",
            "type": "event"
        },
        {
            "inputs": [
                {
                    "internalType": "string",
                    "name": "_name",
                    "type": "string"
                },
                {
                    "internalType": "string",
                    "name": "_pass",
                    "type": "string"
                },
                {
                    "internalType": "address",
                    "name": "_pAdd",
                    "type": "address"
                },
                {
                    "internalType": "string",
                    "name": "_pType",
                    "type": "string"
                }
            ],
            "name": "addParticipant",
            "outputs": [
                {
                    "internalType": "uint32",
                    "name": "",
                    "type": "uint32"
                }
            ],
            "stateMutability": "nonpayable",
            "type": "function"
        },
        {
            "inputs": [
                {
                    "internalType": "uint32",
                    "name": "_ownerId",
                    "type": "uint32"
                },
                {
                    "internalType": "string",
                    "name": "_modelNumber",
                    "type": "string"
                },
                {
                    "internalType": "string",
                    "name": "_partNumber",
                    "type": "string"
                },
                {
                    "internalType": "string",
                    "name": "_serialNumber",
                    "type": "string"
                },
                {
                    "internalType": "uint32",
                    "name": "_productCost",
                    "type": "uint32"
                }
            ],
            "name": "addProduct",
            "outputs": [
                {
                    "internalType": "uint32",
                    "name": "",
                    "type": "uint32"
                }
            ],
            "stateMutability": "nonpayable",
            "type": "function"
        },
        {
            "inputs": [
                {
                    "internalType": "uint32",
                    "name": "_uid",
                    "type": "uint32"
                },
                {
                    "internalType": "string",
                    "name": "_uname",
                    "type": "string"
                },
                {
                    "internalType": "string",
                    "name": "_pass",
                    "type": "string"
                },
                {
                    "internalType": "string",
                    "name": "_utype",
                    "type": "string"
                }
            ],
            "name": "authenticateParticipant",
            "outputs": [
                {
                    "internalType": "bool",
                    "name": "",
                    "type": "bool"
                }
            ],
            "stateMutability": "view",
            "type": "function"
        },
        {
            "inputs": [
                {
                    "internalType": "uint32",
                    "name": "_regId",
                    "type": "uint32"
                }
            ],
            "name": "getOwnership",
            "outputs": [
                {
                    "internalType": "uint32",
                    "name": "",
                    "type": "uint32"
                },
                {
                    "internalType": "uint32",
                    "name": "",
                    "type": "uint32"
                },
                {
                    "internalType": "address",
                    "name": "",
                    "type": "address"
                },
                {
                    "internalType": "uint32",
                    "name": "",
                    "type": "uint32"
                }
            ],
            "stateMutability": "view",
            "type": "function"
        },
        {
            "inputs": [
                {
                    "internalType": "uint32",
                    "name": "_participant_id",
                    "type": "uint32"
                }
            ],
            "name": "getParticipant",
            "outputs": [
                {
                    "internalType": "string",
                    "name": "",
                    "type": "string"
                },
                {
                    "internalType": "address",
                    "name": "",
                    "type": "address"
                },
                {
                    "internalType": "string",
                    "name": "",
                    "type": "string"
                }
            ],
            "stateMutability": "view",
            "type": "function"
        },
        {
            "inputs": [
                {
                    "internalType": "uint32",
                    "name": "_productId",
                    "type": "uint32"
                }
            ],
            "name": "getProduct",
            "outputs": [
                {
                    "internalType": "string",
                    "name": "",
                    "type": "string"
                },
                {
                    "internalType": "string",
                    "name": "",
                    "type": "string"
                },
                {
                    "internalType": "string",
                    "name": "",
                    "type": "string"
                },
                {
                    "internalType": "uint32",
                    "name": "",
                    "type": "uint32"
                },
                {
                    "internalType": "address",
                    "name": "",
                    "type": "address"
                },
                {
                    "internalType": "uint32",
                    "name": "",
                    "type": "uint32"
                }
            ],
            "stateMutability": "view",
            "type": "function"
        },
        {
            "inputs": [
                {
                    "internalType": "uint32",
                    "name": "_prodId",
                    "type": "uint32"
                }
            ],
            "name": "getProvenance",
            "outputs": [
                {
                    "internalType": "uint32[]",
                    "name": "",
                    "type": "uint32[]"
                }
            ],
            "stateMutability": "view",
            "type": "function"
        },
        {
            "inputs": [
                {
                    "internalType": "uint32",
                    "name": "_user1Id",
                    "type": "uint32"
                },
                {
                    "internalType": "uint32",
                    "name": "_user2Id",
                    "type": "uint32"
                },
                {
                    "internalType": "uint32",
                    "name": "_prodId",
                    "type": "uint32"
                }
            ],
            "name": "newOwner",
            "outputs": [
                {
                    "internalType": "bool",
                    "name": "",
                    "type": "bool"
                }
            ],
            "stateMutability": "nonpayable",
            "type": "function"
        },
        {
            "inputs": [],
            "name": "owner_id",
            "outputs": [
                {
                    "internalType": "uint32",
                    "name": "",
                    "type": "uint32"
                }
            ],
            "stateMutability": "view",
            "type": "function"
        },
        {
            "inputs": [
                {
                    "internalType": "uint32",
                    "name": "",
                    "type": "uint32"
                }
            ],
            "name": "ownerships",
            "outputs": [
                {
                    "internalType": "uint32",
                    "name": "productId",
                    "type": "uint32"
                },
                {
                    "internalType": "uint32",
                    "name": "ownerId",
                    "type": "uint32"
                },
                {
                    "internalType": "uint32",
                    "name": "trxTimeStamp",
                    "type": "uint32"
                },
                {
                    "internalType": "address",
                    "name": "productOwner",
                    "type": "address"
                }
            ],
            "stateMutability": "view",
            "type": "function"
        },
        {
            "inputs": [],
            "name": "participant_id",
            "outputs": [
                {
                    "internalType": "uint32",
                    "name": "",
                    "type": "uint32"
                }
            ],
            "stateMutability": "view",
            "type": "function"
        },
        {
            "inputs": [
                {
                    "internalType": "uint32",
                    "name": "",
                    "type": "uint32"
                }
            ],
            "name": "participants",
            "outputs": [
                {
                    "internalType": "string",
                    "name": "userName",
                    "type": "string"
                },
                {
                    "internalType": "string",
                    "name": "password",
                    "type": "string"
                },
                {
                    "internalType": "string",
                    "name": "participantType",
                    "type": "string"
                },
                {
                    "internalType": "address",
                    "name": "participantAddress",
                    "type": "address"
                }
            ],
            "stateMutability": "view",
            "type": "function"
        },
        {
            "inputs": [
                {
                    "internalType": "uint32",
                    "name": "",
                    "type": "uint32"
                },
                {
                    "internalType": "uint256",
                    "name": "",
                    "type": "uint256"
                }
            ],
            "name": "productTrack",
            "outputs": [
                {
                    "internalType": "uint32",
                    "name": "",
                    "type": "uint32"
                }
            ],
            "stateMutability": "view",
            "type": "function"
        },
        {
            "inputs": [],
            "name": "product_id",
            "outputs": [
                {
                    "internalType": "uint32",
                    "name": "",
                    "type": "uint32"
                }
            ],
            "stateMutability": "view",
            "type": "function"
        },
        {
            "inputs": [
                {
                    "internalType": "uint32",
                    "name": "",
                    "type": "uint32"
                }
            ],
            "name": "products",
            "outputs": [
                {
                    "internalType": "string",
                    "name": "modelNumber",
                    "type": "string"
                },
                {
                    "internalType": "string",
                    "name": "partNumber",
                    "type": "string"
                },
                {
                    "internalType": "string",
                    "name": "serialNumber",
                    "type": "string"
                },
                {
                    "internalType": "address",
                    "name": "productOwner",
                    "type": "address"
                },
                {
                    "internalType": "uint32",
                    "name": "cost",
                    "type": "uint32"
                },
                {
                    "internalType": "uint32",
                    "name": "mfgTimeStamp",
                    "type": "uint32"
                }
            ],
            "stateMutability": "view",
            "type": "function"
        }
    ],
    "bytecode": "6080604052600080546001600160601b031916905534801561002057600080fd5b50612ae0806100306000396000f3fe608060405234801561001057600080fd5b50600436106100f55760003560e01c80638f5ebf7111610097578063df6d23f111610066578063df6d23f114610a7b578063eab0a47914610ad7578063ebf43a7e14610adf578063fc2da91014610c9e576100f5565b80638f5ebf71146107e8578063a638ac49146107f0578063bf712fd614610981578063c856956514610a08576100f5565b806350632104116100d35780635063210414610296578063721b5743146104595780637d0a9ac91461061457806381e156101461078b576100f5565b80631a074802146100fa5780632e9d52841461013c5780633b26a65d14610185575b600080fd5b6101236004803603604081101561011057600080fd5b5063ffffffff8135169060200135610ca6565b6040805163ffffffff9092168252519081900360200190f35b6101716004803603606081101561015257600080fd5b5063ffffffff8135811691602081013582169160409091013516610cec565b604080519115158252519081900360200190f35b6101a86004803603602081101561019b57600080fd5b503563ffffffff16611aee565b6040518080602001846001600160a01b0316815260200180602001838103835286818151815260200191508051906020019080838360005b838110156101f85781810151838201526020016101e0565b50505050905090810190601f1680156102255780820380516001836020036101000a031916815260200191505b50838103825284518152845160209182019186019080838360005b83811015610258578181015183820152602001610240565b50505050905090810190601f1680156102855780820380516001836020036101000a031916815260200191505b509550505050505060405180910390f35b610123600480360360a08110156102ac57600080fd5b63ffffffff8235169190810190604081016020820135600160201b8111156102d357600080fd5b8201836020820111156102e557600080fd5b803590602001918460018302840111600160201b8311171561030657600080fd5b91908080601f0160208091040260200160405190810160405280939291908181526020018383808284376000920191909152509295949360208101935035915050600160201b81111561035857600080fd5b82018360208201111561036a57600080fd5b803590602001918460018302840111600160201b8311171561038b57600080fd5b91908080601f0160208091040260200160405190810160405280939291908181526020018383808284376000920191909152509295949360208101935035915050600160201b8111156103dd57600080fd5b8201836020820111156103ef57600080fd5b803590602001918460018302840111600160201b8311171561041057600080fd5b91908080601f0160208091040260200160405190810160405280939291908181526020018383808284376000920191909152509295505050903563ffffffff169150611c429050565b6101716004803603608081101561046f57600080fd5b63ffffffff8235169190810190604081016020820135600160201b81111561049657600080fd5b8201836020820111156104a857600080fd5b803590602001918460018302840111600160201b831117156104c957600080fd5b91908080601f0160208091040260200160405190810160405280939291908181526020018383808284376000920191909152509295949360208101935035915050600160201b81111561051b57600080fd5b82018360208201111561052d57600080fd5b803590602001918460018302840111600160201b8311171561054e57600080fd5b91908080601f0160208091040260200160405190810160405280939291908181526020018383808284376000920191909152509295949360208101935035915050600160201b8111156105a057600080fd5b8201836020820111156105b257600080fd5b803590602001918460018302840111600160201b831117156105d357600080fd5b91908080601f016020809104026020016040519081016040528093929190818152602001838380828437600092019190915250929550611e3a945050505050565b6106376004803603602081101561062a57600080fd5b503563ffffffff1661217d565b60405180806020018060200180602001856001600160a01b03168152602001848103845288818151815260200191508051906020019080838360005b8381101561068b578181015183820152602001610673565b50505050905090810190601f1680156106b85780820380516001836020036101000a031916815260200191505b50848103835287518152875160209182019189019080838360005b838110156106eb5781810151838201526020016106d3565b50505050905090810190601f1680156107185780820380516001836020036101000a031916815260200191505b50848103825286518152865160209182019188019080838360005b8381101561074b578181015183820152602001610733565b50505050905090810190601f1680156107785780820380516001836020036101000a031916815260200191505b5097505050505050505060405180910390f35b6107ae600480360360208110156107a157600080fd5b503563ffffffff16612357565b6040805163ffffffff9586168152938516602085015291909316828201526001600160a01b03909216606082015290519081900360800190f35b610123612395565b6108136004803603602081101561080657600080fd5b503563ffffffff166123a8565b604051808060200180602001806020018763ffffffff168152602001866001600160a01b031681526020018563ffffffff16815260200184810384528a818151815260200191508051906020019080838360005b8381101561087f578181015183820152602001610867565b50505050905090810190601f1680156108ac5780820380516001836020036101000a031916815260200191505b5084810383528951815289516020918201918b019080838360005b838110156108df5781810151838201526020016108c7565b50505050905090810190601f16801561090c5780820380516001836020036101000a031916815260200191505b5084810382528851815288516020918201918a019080838360005b8381101561093f578181015183820152602001610927565b50505050905090810190601f16801561096c5780820380516001836020036101000a031916815260200191505b50995050505050505050505060405180910390f35b6109a46004803603602081101561099757600080fd5b503563ffffffff166125b1565b604080516001600160a01b038516606082015263ffffffff8085166080830152831660a082015260c080825288519082015287519091829160208084019284019160e08501918c01908083836000831561087f578181015183820152602001610867565b610a2b60048036036020811015610a1e57600080fd5b503563ffffffff166127a5565b60408051602080825283518183015283519192839290830191858101910280838360005b83811015610a67578181015183820152602001610a4f565b505050509050019250505060405180910390f35b610a9e60048036036020811015610a9157600080fd5b503563ffffffff1661283a565b6040805163ffffffff958616815293851660208501526001600160a01b0390921683830152909216606082015290519081900360800190f35b6101236128b5565b61012360048036036080811015610af557600080fd5b810190602081018135600160201b811115610b0f57600080fd5b820183602082011115610b2157600080fd5b803590602001918460018302840111600160201b83111715610b4257600080fd5b91908080601f0160208091040260200160405190810160405280939291908181526020018383808284376000920191909152509295949360208101935035915050600160201b811115610b9457600080fd5b820183602082011115610ba657600080fd5b803590602001918460018302840111600160201b83111715610bc757600080fd5b91908080601f01602080910402602001604051908101604052809392919081815260200183838082843760009201919091525092956001600160a01b03853516959094909350604081019250602001359050600160201b811115610c2a57600080fd5b820183602082011115610c3c57600080fd5b803590602001918460018302840111600160201b83111715610c5d57600080fd5b91908080601f0160208091040260200160405190810160405280939291908181526020018383808284376000920191909152509295506128c1945050505050565b61012361298c565b60046020528160005260406000208181548110610cbf57fe5b9060005260206000209060089182820401919006600402915091509054906101000a900463ffffffff1681565b63ffffffff811660009081526001602052604081206003015482906001600160a01b03163314610d3d576040805162461bcd60e51b8152602060048201526000602482015290519081900360640190fd5b610d4561299f565b63ffffffff86166000908152600260208181526040928390208351815460a0601f60001961010060018516150201909216959095049081018490049093028101840190945260808401828152909284928491840182828015610de85780601f10610dbd57610100808354040283529160200191610de8565b820191906000526020600020905b815481529060010190602001808311610dcb57829003601f168201915b50505050508152602001600182018054600181600116156101000203166002900480601f016020809104026020016040519081016040528092919081815260200182805460018160011615610100020316600290048015610e8a5780601f10610e5f57610100808354040283529160200191610e8a565b820191906000526020600020905b815481529060010190602001808311610e6d57829003601f168201915b5050509183525050600282810180546040805160206001841615610100026000190190931694909404601f81018390048302850183019091528084529381019390830182828015610f1c5780601f10610ef157610100808354040283529160200191610f1c565b820191906000526020600020905b815481529060010190602001808311610eff57829003601f168201915b5050509183525050600391909101546001600160a01b03166020909101529050610f4461299f565b63ffffffff86166000908152600260208181526040928390208351815460a0601f60001961010060018516150201909216959095049081018490049093028101840190945260808401828152909284928491840182828015610fe75780601f10610fbc57610100808354040283529160200191610fe7565b820191906000526020600020905b815481529060010190602001808311610fca57829003601f168201915b50505050508152602001600182018054600181600116156101000203166002900480601f0160208091040260200160405190810160405280929190818152602001828054600181600116156101000203166002900480156110895780601f1061105e57610100808354040283529160200191611089565b820191906000526020600020905b81548152906001019060200180831161106c57829003601f168201915b5050509183525050600282810180546040805160206001841615610100026000190190931694909404601f8101839004830285018301909152808452938101939083018282801561111b5780601f106110f05761010080835404028352916020019161111b565b820191906000526020600020905b8154815290600101906020018083116110fe57829003601f168201915b5050509183525050600391909101546001600160a01b0316602091820152600080546bffffffff00000000000000001981166001600160401b9283900463ffffffff90811691820116909202179091556040858101519051815194955091937fcec9b8e63c868f2f7f30368f1583e7aa39ae80e163d57a859fa5a90244b28ac19391928201918291908401908083835b602083106111ca5780518252601f1990920191602091820191016111ab565b6001836020036101000a038019825116818451168082178552505050505050905001915050604051602081830303815290604052805190602001201480156112905750600080516020612a8b83398151915282604001516040516020018082805190602001908083835b602083106112535780518252601f199092019160209182019101611234565b6001836020036101000a03801982511681845116808217855250505050505090500191505060405160208183030381529060405280519060200120145b156114a25785600360008363ffffffff1663ffffffff16815260200190815260200160002060000160006101000a81548163ffffffff021916908363ffffffff1602179055508160600151600360008363ffffffff1663ffffffff168152602001908152602001600020600001600c6101000a8154816001600160a01b0302191690836001600160a01b0316021790555086600360008363ffffffff1663ffffffff16815260200190815260200160002060000160046101000a81548163ffffffff021916908363ffffffff16021790555042600360008363ffffffff1663ffffffff16815260200190815260200160002060000160086101000a81548163ffffffff021916908363ffffffff1602179055508160600151600160008863ffffffff1663ffffffff16815260200190815260200160002060030160006101000a8154816001600160a01b0302191690836001600160a01b03160217905550600460008763ffffffff1663ffffffff1681526020019081526020016000208190806001815401808255809150506001900390600052602060002090600891828204019190066004029091909190916101000a81548163ffffffff021916908363ffffffff1602179055507fa5470ac012c6e9dc500e62b1d3de0de58db49b3ab7cfebbfb126d9abd854199b86604051808263ffffffff16815260200191505060405180910390a160019450505050611ae6565b600080516020612a8b83398151915283604001516040516020018082805190602001908083835b602083106114e85780518252601f1990920191602091820191016114c9565b6001836020036101000a038019825116818451168082178552505050505050905001915050604051602081830303815290604052805190602001201480156115ae5750600080516020612a8b83398151915282604001516040516020018082805190602001908083835b602083106115715780518252601f199092019160209182019101611552565b6001836020036101000a03801982511681845116808217855250505050505090500191505060405160208183030381529060405280519060200120145b156117c05785600360008363ffffffff1663ffffffff16815260200190815260200160002060000160006101000a81548163ffffffff021916908363ffffffff1602179055508160600151600360008363ffffffff1663ffffffff168152602001908152602001600020600001600c6101000a8154816001600160a01b0302191690836001600160a01b0316021790555086600360008363ffffffff1663ffffffff16815260200190815260200160002060000160046101000a81548163ffffffff021916908363ffffffff16021790555042600360008363ffffffff1663ffffffff16815260200190815260200160002060000160086101000a81548163ffffffff021916908363ffffffff1602179055508160600151600160008863ffffffff1663ffffffff16815260200190815260200160002060030160006101000a8154816001600160a01b0302191690836001600160a01b03160217905550600460008763ffffffff1663ffffffff1681526020019081526020016000208190806001815401808255809150506001900390600052602060002090600891828204019190066004029091909190916101000a81548163ffffffff021916908363ffffffff1602179055507fa5470ac012c6e9dc500e62b1d3de0de58db49b3ab7cfebbfb126d9abd854199b86604051808263ffffffff16815260200191505060405180910390a160019450505050611ae6565b600080516020612a8b83398151915283604001516040516020018082805190602001908083835b602083106118065780518252601f1990920191602091820191016117e7565b6001836020036101000a038019825116818451168082178552505050505050905001915050604051602081830303815290604052805190602001201480156118cc5750600080516020612a8b83398151915282604001516040516020018082805190602001908083835b6020831061188f5780518252601f199092019160209182019101611870565b6001836020036101000a03801982511681845116808217855250505050505090500191505060405160208183030381529060405280519060200120145b15611ade5785600360008363ffffffff1663ffffffff16815260200190815260200160002060000160006101000a81548163ffffffff021916908363ffffffff1602179055508160600151600360008363ffffffff1663ffffffff168152602001908152602001600020600001600c6101000a8154816001600160a01b0302191690836001600160a01b0316021790555086600360008363ffffffff1663ffffffff16815260200190815260200160002060000160046101000a81548163ffffffff021916908363ffffffff16021790555042600360008363ffffffff1663ffffffff16815260200190815260200160002060000160086101000a81548163ffffffff021916908363ffffffff1602179055508160600151600160008863ffffffff1663ffffffff16815260200190815260200160002060030160006101000a8154816001600160a01b0302191690836001600160a01b03160217905550600460008763ffffffff1663ffffffff1681526020019081526020016000208190806001815401808255809150506001900390600052602060002090600891828204019190066004029091909190916101000a81548163ffffffff021916908363ffffffff1602179055507fa5470ac012c6e9dc500e62b1d3de0de58db49b3ab7cfebbfb126d9abd854199b86604051808263ffffffff16815260200191505060405180910390a160019450505050611ae6565b600094505050505b509392505050565b63ffffffff8116600090815260026020818152604080842060038101548154835161010060018316150260001901909116869004601f810186900486028201860190945283815260609695879593946001600160a01b0390931693908501928591830182828015611ba05780601f10611b7557610100808354040283529160200191611ba0565b820191906000526020600020905b815481529060010190602001808311611b8357829003601f168201915b5050845460408051602060026001851615610100026000190190941693909304601f810184900484028201840190925281815295985086945092508401905082828015611c2e5780601f10611c0357610100808354040283529160200191611c2e565b820191906000526020600020905b815481529060010190602001808311611c1157829003601f168201915b505050505090509250925092509193909250565b60007fcec9b8e63c868f2f7f30368f1583e7aa39ae80e163d57a859fa5a90244b28ac1600260008863ffffffff1663ffffffff1681526020019081526020016000206002016040516020018082805460018160011615610100020316600290048015611ce55780601f10611cc3576101008083540402835291820191611ce5565b820191906000526020600020905b815481529060010190602001808311611cd1575b5050915050604051602081830303815290604052805190602001201415611e2d576000805463ffffffff198116600163ffffffff9283168181019093169190911783558183526020908152604090922087519192611d4692908901906129d0565b5063ffffffff811660009081526001602081815260409092208751611d73939190920191908801906129d0565b5063ffffffff811660009081526001602090815260409091208551611da0926002909201918701906129d0565b5063ffffffff808216600081815260016020818152604080842060039081018054888c16600160a01b0263ffffffff60a01b19909116178082558f8916875260028552928620909101549590945291905242909316600160c01b0263ffffffff60c01b196001600160a01b03199094166001600160a01b0390931692909217929092161790559050611e31565b5060005b95945050505050565b6000816040516020018082805190602001908083835b60208310611e6f5780518252601f199092019160209182019101611e50565b6001836020036101000a03801982511681845116808217855250505050505090500191505060405160208183030381529060405280519060200120600260008763ffffffff1663ffffffff1681526020019081526020016000206002016040516020018082805460018160011615610100020316600290048015611f2a5780601f10611f08576101008083540402835291820191611f2a565b820191906000526020600020905b815481529060010190602001808311611f16575b505091505060405160208183030381529060405280519060200120141561217157836040516020018082805190602001908083835b60208310611f7e5780518252601f199092019160209182019101611f5f565b6001836020036101000a03801982511681845116808217855250505050505090500191505060405160208183030381529060405280519060200120600260008763ffffffff1663ffffffff16815260200190815260200160002060000160405160200180828054600181600116156101000203166002900480156120395780601f10612017576101008083540402835291820191612039565b820191906000526020600020905b815481529060010190602001808311612025575b505091505060405160208183030381529060405280519060200120141561217157826040516020018082805190602001908083835b6020831061208d5780518252601f19909201916020918201910161206e565b6001836020036101000a03801982511681845116808217855250505050505090500191505060405160208183030381529060405280519060200120600260008763ffffffff1663ffffffff16815260200190815260200160002060010160405160200180828054600181600116156101000203166002900480156121485780601f10612126576101008083540402835291820191612148565b820191906000526020600020905b815481529060010190602001808311612134575b505091505060405160208183030381529060405280519060200120141561217157506001612175565b5060005b949350505050565b600260208181526000928352604092839020805484516001821615610100026000190190911693909304601f810183900483028401830190945283835292839183018282801561220e5780601f106121e35761010080835404028352916020019161220e565b820191906000526020600020905b8154815290600101906020018083116121f157829003601f168201915b505050505090806001018054600181600116156101000203166002900480601f0160208091040260200160405190810160405280929190818152602001828054600181600116156101000203166002900480156122ac5780601f10612281576101008083540402835291602001916122ac565b820191906000526020600020905b81548152906001019060200180831161228f57829003601f168201915b50505060028085018054604080516020601f600019610100600187161502019094169590950492830185900485028101850190915281815295969594509092509083018282801561233e5780601f106123135761010080835404028352916020019161233e565b820191906000526020600020905b81548152906001019060200180831161232157829003601f168201915b505050600390930154919250506001600160a01b031684565b60036020526000908152604090205463ffffffff80821691600160201b8104821691600160401b82041690600160601b90046001600160a01b031684565b600054600160401b900463ffffffff1681565b63ffffffff81811660009081526001602081815260408084206003810154815483516002610100838916150260001901909216829004601f8101879004870282018701909552848152606098899889989097889788979692870195870194600160a01b84048516946001600160a01b03851694600160c01b90041692909188918301828280156124795780601f1061244e57610100808354040283529160200191612479565b820191906000526020600020905b81548152906001019060200180831161245c57829003601f168201915b5050885460408051602060026001851615610100026000190190941693909304601f8101849004840282018401909252818152959b508a9450925084019050828280156125075780601f106124dc57610100808354040283529160200191612507565b820191906000526020600020905b8154815290600101906020018083116124ea57829003601f168201915b5050875460408051602060026001851615610100026000190190941693909304601f8101849004840282018401909252818152959a50899450925084019050828280156125955780601f1061256a57610100808354040283529160200191612595565b820191906000526020600020905b81548152906001019060200180831161257857829003601f168201915b5050505050935095509550955095509550955091939550919395565b60016020818152600092835260409283902080548451600294821615610100026000190190911693909304601f81018390048302840183019094528383529283918301828280156126435780601f1061261857610100808354040283529160200191612643565b820191906000526020600020905b81548152906001019060200180831161262657829003601f168201915b505050505090806001018054600181600116156101000203166002900480601f0160208091040260200160405190810160405280929190818152602001828054600181600116156101000203166002900480156126e15780601f106126b6576101008083540402835291602001916126e1565b820191906000526020600020905b8154815290600101906020018083116126c457829003601f168201915b50505060028085018054604080516020601f60001961010060018716150201909416959095049283018590048502810185019091528181529596959450909250908301828280156127735780601f1061274857610100808354040283529160200191612773565b820191906000526020600020905b81548152906001019060200180831161275657829003601f168201915b505050600390930154919250506001600160a01b0381169063ffffffff600160a01b8204811691600160c01b90041686565b63ffffffff811660009081526004602090815260409182902080548351818402810184019094528084526060939283018282801561282e57602002820191906000526020600020906000905b82829054906101000a900463ffffffff1663ffffffff16815260200190600401906020826003010492830192600103820291508084116127f15790505b50505050509050919050565b600080600080612848612a4e565b5050505063ffffffff91821660009081526003602090815260409182902082516080810184529054808616808352600160201b82048716938301849052600160401b8204909616938201849052600160601b90046001600160a01b03166060909101819052939490939250565b60005463ffffffff1681565b6000805467ffffffff00000000198116600160201b9182900463ffffffff908116600181019091169092021782558082526002602090815260408320875161290b928901906129d0565b5063ffffffff811660009081526002602090815260409091208651612938926001909201918801906129d0565b5063ffffffff811660009081526002602081815260409092206003810180546001600160a01b0319166001600160a01b0389161790558551612982939190920191908601906129d0565b5095945050505050565b600054600160201b900463ffffffff1681565b604051806080016040528060608152602001606081526020016060815260200160006001600160a01b031681525090565b828054600181600116156101000203166002900490600052602060002090601f016020900481019282601f10612a1157805160ff1916838001178555612a3e565b82800160010185558215612a3e579182015b82811115612a3e578251825591602001919060010190612a23565b50612a4a929150612a75565b5090565b60408051608081018252600080825260208201819052918101829052606081019190915290565b5b80821115612a4a5760008155600101612a7656fee28f94ee1c5aad96c25e7b3f3383ec4336b2e152859bcacccdd82d28f5386265a26469706673582212200ef103e00933aa0f675786b2964066f607538793caf765cd8c7fac439b0855e064736f6c63430007000033",
    "sourcePath": "c:/BlockChainHRMApp/contracts/BlockChainHRM.sol",
    "compiler": {
        "name": "solc",
        "version": "0.7.0+commit.9e61f92b"
    },
    "functionHashes": {
        "addParticipant(string,string,address,string)": "ebf43a7e",
        "addProduct(uint32,string,string,string,uint32)": "50632104",
        "authenticateParticipant(uint32,string,string,string)": "721b5743",
        "getOwnership(uint32)": "df6d23f1",
        "getParticipant(uint32)": "3b26a65d",
        "getProduct(uint32)": "a638ac49",
        "getProvenance(uint32)": "c8569565",
        "newOwner(uint32,uint32,uint32)": "2e9d5284",
        "owner_id()": "8f5ebf71",
        "ownerships(uint32)": "81e15610",
        "participant_id()": "fc2da910",
        "participants(uint32)": "7d0a9ac9",
        "productTrack(uint32,uint256)": "1a074802",
        "product_id()": "eab0a479",
        "products(uint32)": "bf712fd6"
    },
    "gasEstimates": {
        "creation": {
            "codeDepositCost": "2195200",
            "executionCost": "23168",
            "totalCost": "2218368"
        },
        "external": {
            "addParticipant(string,string,address,string)": "infinite",
            "addProduct(uint32,string,string,string,uint32)": "infinite",
            "authenticateParticipant(uint32,string,string,string)": "infinite",
            "getOwnership(uint32)": "1618",
            "getParticipant(uint32)": "infinite",
            "getProduct(uint32)": "infinite",
            "getProvenance(uint32)": "infinite",
            "newOwner(uint32,uint32,uint32)": "infinite",
            "owner_id()": "1053",
            "ownerships(uint32)": "1402",
            "participant_id()": "1118",
            "participants(uint32)": "infinite",
            "productTrack(uint32,uint256)": "3719",
            "product_id()": "1057",
            "products(uint32)": "infinite"
        }
    }
}